:1000000003308A00502B00000A108A100A11820760
:1000100028340C34013406340C104937E931E93006
:100020006E326F1700000C104937E931E9306E323B
:100030006F172E000C104937E931E9306E326F1717
:100040002E1700000C2AE9326D386F10BA12CC3A24
:100050002005C434733A6137E33461103D1025261E
:1000600075002E30840083130008031945280130E1
:10007000F800F701F70B3A28F80B39284A30F70057
:10008000F70B40284328800B37280800350EF0393D
:10009000F7000F3008057704880000000814502886
:1000A000081008000808F700080E0F39F8000800CB
:1000B0008316081088100811831288100F308316D9
:1000C0000805F038880083120815000008140000A5
:1000D00052207808B50008100000081400005220D3
:1000E0007808B40008100F308316080588008312C2
:1000F000350EF700F030F70577083404F80078087B
:10010000B400B41B5E28321C88103218881400001A
:10011000081100000810330EB4000F30B405340885
:10012000B500462033080F39B400B500462008005A
:100130000F308316080588000810881008118312F4
:100140008810081108100F30AE0031200130A400D3
:100150002408033C031CB4280330B50046200530B6
:10016000AE003120A40AA8280230B5004620053090
:10017000AE003120A4012408033C031CC828240835
:100180000420A500B2012508B3005820A40ABB280A
:100190008A110A125D2B2F0BCE28D1284030B000D7
:1001A000D228B00101302E02B00730088038B100EB
:1001B000B2013108B300582008002D08073A03198E
:1001C000EB280B3A0319F028063A0319F828023AEB
:1001D0000319FE2803290130AE00AF00CB20082907
:1001E000B2010130B30058200230AE00312008299E
:1001F0000130AE000230AF00CB200829B201103030
:10020000B300582008290130B2002D08B30058204F
:1002100008000B08A4008B13831603178C170C140B
:1002200000000000801F1929831203138B17831607
:10023000031783120C087F39031963290313A400E1
:1002400003170D080313A50003170F080313A600D7
:100250002408AD00DD20250803178D0003132608B0
:1002600003178F0003130B08A7008B1383160317C4
:100270008C170C1400000000801F43298312031305
:100280008B178316031783120C0D0E0D7F3903197C
:1002900063290313A40003170D080313A500031714
:1002A0000F080313A6002408AD00DD20250803175E
:1002B0008D000313260803178F008D0A03198F0A78
:1002C000031309290317031308001030A800F701CE
:1002D000FA01A50CA40C031C73292608F7070318C0
:1002E000FA0A2708FA07FA0CF70CF90CF80CA80B15
:1002F00069298A110A12B72B8E30F7002708F800F7
:100300002608F900FA01F808031D90297908F80079
:10031000F9010830F702F808031D9029F701982920
:100320000310F81B9729F90DF80DF7039029F8131E
:100330008A110A12C02B26080319602AB2002A0863
:100340000319602AB202031CAA297F30B2070318DE
:10035000602AB0298130B202031C602A0319602A86
:100360003208F700F801F901FA01B1012708B000DD
:10037000B0172808AF002908AE001930B2002D08C8
:10038000AE020318D3290130AF020318D329B002FB
:100390000318D329B1020318D329B10AB00AAF0A4E
:1003A0002D08AE07052A2C08AF020318EE290130EC
:1003B000B0020318EE29B1020318EE29B10AB00AFF
:1003C0002C08AF072D08AE07031C052AAF0A031D32
:1003D000052AB00A031D052AB10A052A2B08803810
:1003E000B0020318042A0130B1020318042AB10A2A
:1003F0002B088038B0072C08AF07031CE229B00A8D
:10040000031DE229B10AE2297A14B20B082A132A41
:100410000310AE0DAF0DB00DB10D0310FA0DF90DB7
:10042000F80DB30DBF29331C1B2A0310F80CF90C6F
:10043000FA0CB30C1E2AF7030319602AB31B472AD0
:100440000310AE0DAF0DB00DB10D2D08AE020318A7
:10045000332A0130AF020318332AB0020318332ABB
:10046000B102031C562A2C08AF0203183E2A0130A1
:10047000B00203183E2AB102031C562A2B0880380A
:10048000B0020318472A0130B102031C562AFA0AA7
:10049000031D562AF90A031D562AF80A031D562A77
:1004A000F70A0319602AF80CF90CFA0C2708B200B5
:1004B0002B08B206B21F5E2AF817642AF813642AC2
:1004C000F701F801F901FA018A110A12CF2B8E30D7
:1004D000F7002408F7022508F9002608F800F917A4
:1004E000F70803197E2A0310F908031D7A2AF80871
:1004F00003197E2AF90CF80CF70B732AA51F852A1D
:10050000F809F909F80A0319F90A8A110A12D82B0D
:100510000B08A5008B13831603178C170C1400000F
:100520000000801F982A831203138B17831603176A
:100530000318CD2A83120C087F390313A500031773
:100540000D080313A60003170F080313A7002508BF
:10055000AD00DD20260803178D00031327080317BD
:100560008F0003130B08A8008B13831603178C1737
:100570000C1400000000801FC22A831203138B1783
:100580008316031783120313A40BC72ACA2A8316E0
:100590000317CD2AEC2A8316031783120C0D0E0DB8
:1005A0007F390313A50003170D080313A6000317D3
:1005B0000F080313A7002508AD00DD202608031748
:1005C0008D000313270803178F008D0A03198F0A64
:1005D00003100313A40B882A0800AC010408AB0025
:1005E0002C10831B2C14250EF038A700A707E23E21
:1005F000A800323EAA0025080F39A807A807AA07B5
:10060000E93EA900A907A907240E0F39A907AA07DF
:10061000A90DAA0DAA09AA0D24080F39AA07A70D2A
:100620000730A6000A30AA07A903031C132BA90749
:10063000A803031C172BA807A703031C1B2BA70742
:10064000A603031C1F2B26308400831307302B05C1
:100650002B1384072A30040203192B170008F70014
:10066000031D3A2B2B1B3A2B2B1A4C2BAB193A2B75
:1006700020303D2BAB152B123030F707A5010408B5
:10068000A4002510831B25147708AD00DD20240865
:100690008400831325188317840A2B1F2A2B080034
:1006A00003081F39830083161F149F141F159F1101
:1006B00007309C008313831298280C3003178D0099
:1006C00000308F00031309210230A400FA30AE007D
:1006D0003120A40B662B133003178D0000308F00E0
:1006E000031309210230A400FA30AE003120A40B1C
:1006F000742B1A3003178D0000308F00031309216B
:100700000230A400FA30AE003120A40B822BB530A9
:10071000900083168610831286140630F700F70BBC
:100720008F2B000083168610831286108316061402
:100730008312061C962B8E018F018E0183160614E0
:10074000831206189E2B0F08FA000E08F7000F08F8
:100750007A02031DA32B7708A2007A08A3002308BE
:10076000A5002208A400A7010A30A600652979087F
:10077000A5007808A4007908A7007808A6007C29BD
:100780007A08A9007908A8007808A7007708A600C9
:10079000AD01AC016830AB008430AA009B297A0817
:1007A000A7007908A6007808A5007708A400672AA2
:1007B0007908A1007808A000223003178D000030CE
:1007C0008F00031009300313A40088221030840026
:1007D0002308A5002208A400ED22283003178D006D
:1007E00000308F0003100E300313A4008822103055
:1007F00084002108A5002008A400ED220230A400F6
:0E080000FA30AE003120A40B002C892B6300CF
:02400E00313F40
:00000001FF
;PIC16F877A
;CRC=BB8D  CREATED="16-mar-17 17:06"
